:1000000045C0000060C000005EC000005CC0000091
:100010005AC0000058C0000056C0000054C0000084
:1000200052C0000050C000004EC000004CC0000094
:1000300014C4000048C0000046C00000F8C400001E
:1000400042C0000040C000003EC000003CC00000B4
:100050003AC0000038C0000036C0000034C00000C4
:1000600032C0000030C000002EC000002CC00000D4
:100070002AC0000028C0000026C0000024C00000E4
:1000800022C0000020C000001EC0000011241FBEBE
:10009000CFEFD0E1DEBFCDBF11E0A0E0B1E0E4E9F9
:1000A000FCE000E00BBF02C007900D92A838B1073A
:1000B000D9F721E0A8E8B1E001C01D92AB3AB20740
:1000C000E1F77FD2E5C59CCF93B19F7193B995E0DD
:1000D0009A95F1F7000088BB1F9A85E08A95F1F7A1
:1000E00000001F9895ED9A95F1F70000089593B1DF
:1000F0009F7393B91D9A95E09A95F1F7000088BB1C
:100100001F9A85E08A95F1F700001F9895ED9A9562
:10011000F1F700000895CF93DF93EB01D5DF8881DD
:10012000882329F02196E3DF89918111FCCFDF91AB
:10013000CF9108958FEF87BB82B1806E82B987EC33
:1001400090E00197F1F700C0000083B1806A83B9A5
:1001500087EC90E00197F1F700C000001F9887EC52
:1001600090E00197F1F700C0000088E3ADDF8CE07C
:10017000ABDF86E0A9DF81E0A7DF8FE19EE4019796
:10018000F1F700C0000008958FEF84BB15BA089501
:10019000CF9380918801823009F088C06BE071E0D4
:1001A00080E890E0B8DF80910001882309F46FC1F6
:1001B00081EC90E089DF8091A701CDEC8C9F812DAF
:1001C000112486958695869590E0C09690DF809163
:1001D000A7018C9F912D1124969596959695990F30
:1001E000292F220F220F920F891B90E0C0967FDFEC
:1001F00084EC90E069DF8091A3018C9F812D112414
:1002000086958695869590E0C09671DF8091A301D2
:100210008C9F912D1124969596959695990F292F3F
:10022000220F220F920F891B90E0C09660DF87ECAF
:1002300090E04ADF80919F018C9F812D112486954B
:100240008695869590E0C09652DF80919F018C9FA5
:10025000912D1124969596959695990F292F220FF9
:10026000220F920F891B90E0C09641DF8AEC90E04C
:100270002BDF80919D018C9F812D11248695869581
:10028000869590E0C09633DF80919D018C9FC12DB3
:100290001124C695C695C695CC0F9C2F990F990F22
:1002A000C90F8C1B90E0C09622DFF1C080918801BD
:1002B000882329F080918801813009F06DC08091F8
:1002C0008D01811104C08091880181115FC084EC8F
:1002D00090E0FADE8091A201CDEC8C9F812D11245B
:1002E00086958695869590E0C09601DF8091A20163
:1002F0008C9F912D1124969596959695990F292F5F
:10030000220F220F920F891B90E0C096F0DE87EC3F
:1003100090E0DADE8091A6018C9F812D11248695D4
:100320008695869590E0C096E2DE8091A6018C9F2E
:10033000912D1124969596959695990F292F220F18
:10034000220F920F891B90E0C096D1DE8AEC90E0DC
:10035000BBDE8091A8018C9F812D11248695869506
:10036000869590E0C096C3DE8091A8018C9FC12D38
:100370001124C695C695C695CC0F9C2F990F990F41
:10038000C90F8C1B90E0C096B2DE81C06CE171E0B9
:1003900084EC90E0C0DE7BC084EC90E095DE809140
:1003A000A101CDEC8C9F812D112486958695869593
:1003B00090E0C0969CDE8091A1018C9F912D11242C
:1003C000969596959695990F292F220F220F920FA9
:1003D000891B90E0C0968BDE87EC90E075DE809103
:1003E0009E018C9F812D112486958695869590E09F
:1003F000C0967DDE80919E018C9F912D1124969553
:1004000096959695990F292F220F220F920F891BEF
:1004100090E0C0966CDE8AEC90E056DE8091A00100
:100420008C9F812D112486958695869590E0C096A7
:100430005EDE8091A0018C9FC12D1124C695C695CA
:10044000C695CC0F9C2F990F990FC90F8C1B90E06C
:10045000C0964DDE80918D018823C9F0809189017D
:10046000813031F462E671E084EC90E054DE0FC03C
:10047000823031F462E671E087EC90E04CDE07C038
:10048000833029F462E671E08AEC90E044DECF919B
:100490000895CF93DF93AC01C2E9D1E09C0136957A
:1004A00027953695279536952795A5ECB0E29BD3F1
:1004B000FC01F295E295EF70EF27FF70EF279F01A7
:1004C000ADECBCEC90D396958795969587959695CF
:1004D00087959C01220F331F880F991F880F991F42
:1004E000880F991F820F931FE81BF90BEF5FFE4FD8
:1004F000808188839A013695279536952795ABE7B5
:10050000B4E171D3FC01F695E7959F01ADECBCEC2D
:100510006AD39695879596958795969587959C012C
:10052000220F331F880F991F880F991F880F991F5B
:10053000820F931FE81BF90BEF5FFE4F80818983C9
:100540009A0151D3FC01F695E795F695E795F69556
:10055000E7959F0148D396958795969587959695AB
:1005600087959C01220F331F880F991F880F991FB1
:10057000880F991F820F931FDF01A81BB90BAF5F74
:10058000BE4F8C918A83CF01880F991FEE0FFF1FFA
:10059000EE0FFF1FEE0FFF1FE80FF91F4E1B5F0B43
:1005A000FA01EF5FFE4F80818B83DF91CF91089539
:1005B0008FEF8ABB1BBA8FE18093640010926500B5
:1005C0000895F6DF6ED282E090E076D2DDDD16D1BE
:1005D000B1DD65E271E080E890E09DDD65E371E00A
:1005E00080EC90E098DD81B38F7081BB80E090E07B
:1005F00050DF7894C1E0DC2F80918F01882319F0BF
:1006000010928F01C5DD80919C01882329F087E03D
:1006100090E002D110929C01849B53C080918A018A
:100620008F5F80938A018FE39CE90197F1F700C007
:10063000000080918A01883C08F443C010928A012E
:10064000809188018F5F8093880180918801843038
:1006500010F0109288018091880181110BC065E231
:1006600071E080E890E057DD65E371E080EC90E0B8
:1006700052DD27C080918801823059F466E471E030
:1006800080EC90E048DD67E571E080E890E043DDD4
:1006900018C080918801813031F465E671E080E80E
:1006A00090E039DD0EC080918801833051F465E31C
:1006B00071E080EC90E02FDD66E771E080E890E08B
:1006C0002ADD90B380918B01981709F477C08FE9E8
:1006D0009FE00197F1F700C0000080B380938B0189
:1006E00080918801813021F5879B0AC08091A20109
:1006F0008F5F883118F48093A20102C01092A2018A
:10070000869B0AC08091A6018F5F8C3318F480937A
:10071000A60102C01092A601859B0AC08091A80183
:100720008F5F8C3318F48093A80102C01092A80147
:1007300080918801833009F041C0859B0CC0809175
:1007400089018F5F843018F48093890104C010926E
:10075000890180B32AC0869B28C08091890181309D
:1007600059F48091A1018F5F843618F48093A10120
:100770001CC01092A10119C0823059F480919E01D1
:100780008F5F8C3318F480939E010FC010929E01EE
:100790000CC0833051F48091A0018F5F8C3318F42A
:1007A0008093A00102C01092A001879B07C0809196
:1007B00091018C2780939101109289018091880189
:1007C000823009F019CF859B07C0809190018C275A
:1007D00080939001D0930001869B05C08091000119
:1007E0008C2780930001879B07CF10929D01109268
:1007F0009F011092A3011092A701FECE139A80E4EC
:1008000080938B008AE080938A0010928C00109273
:1008100087001092860008958823F1F090E0E6E8C2
:10082000F0E024EF31E0318320834FEF53EC69E0B7
:10083000415050406040E1F700C00000118210823A
:100840004FEF53EC69E0415050406040E1F700C089
:1008500000009F5F8913E7CF08951F920F920FB694
:100860000F9211240BB60F922F933F934F935F93E8
:100870006F937F938F939F93AF93BF93EF93FF9368
:100880008091A9019091AA0101969093AA01809369
:10089000A9018091A9019091AA01843F91400CF493
:1008A00060C01092AA011092A90180919101882341
:1008B00061F18091A00181508093A0018091A001FD
:1008C00088231CF58BE38093A00180919E018150C9
:1008D00080939E0180919E018823BCF48BE38093DA
:1008E0009E018091A10181508093A1018091A1017D
:1008F00088235CF41092A00110929E011092A10135
:1009000081E080939C01109291018091A8018F5FFA
:100910008093A8018091A8018C33C0F01092A801A7
:100920008091A6018F5F8093A6018091A6018C33F0
:1009300068F01092A6018091A2018F5F8093A201BE
:100940008091A201883110F01092A2012091A6019D
:100950008091A80190E034E6239F800D911D112421
:1009600098DD8091A9019091AA016AEF70E00CD105
:10097000892B71F481E080938F0190918D018927FB
:1009800080938D01E5E6F0E0908180E18927808306
:10099000809190018823C1F18091A9019091AA01D1
:1009A00065E070E0F1D0892B79F580919D018F5F32
:1009B00080939D0181E080938F0180919D01843619
:1009C00018F110929D0180919F018F5F80939F018C
:1009D00080919F018C33C0F010929F018091A30100
:1009E0008F5F8093A3018091A3018C3368F01092F4
:1009F000A3018091A7018F5F8093A7018091A70138
:100A0000843610F01092A701FF91EF91BF91AF9142
:100A10009F918F917F916F915F914F913F912F9116
:100A20000F900BBE0F900FBE0F901F9018951F9246
:100A30000F920FB60F9211240BB60F922F938F9334
:100A40009F93EF93FF93E5E6F0E08081807F8083C2
:100A5000208181E090E000908C0102C0880F991FF6
:100A60000A94E2F7822B8083E0918C01F0E0EE564D
:100A7000FE4F80818BBB80918C018F5F843019F099
:100A800080938C0102C010928C01FF91EF919F9195
:100A90008F912F910F900BBE0F900FBE0F901F9054
:100AA00018958EE083BF8CE781BF87B7826087BFD0
:100AB00016BE10927C000895CF92DF92EF92FF92C3
:100AC000CF93DF93C82FD92F8FB58FBD8EB58C6094
:100AD0008EBDEAE7F0E0808180838EB58770833039
:100AE00089F028F4813041F0823049F013C084301D
:100AF00061F0853069F00EC021E030E00BC028E0E5
:100B000030E008C020E430E005C020E031E002C061
:100B100020E034E06901330FEE08FF0860E074E282
:100B200084EF90E0A701960142D0AC2FBD2F6AD090
:100B300028EE33E040E050E03AD0DA01C9010197F5
:100B4000A109B109892F9A2FAB2FBB27A7FDBA9511
:100B50008BBD60E87EE380E090E0A701960127D09E
:100B60002C9F202D112421502ABD1DBC1CBC87B7F1
:100B7000806187BF16BE10927C00DF91CF91FF90FD
:100B8000EF90DF90CF90089597FB072E16F4009416
:100B900006D077FD08D03CD007FC05D03EF49095F8
:100BA00081959F4F0895709561957F4F0895052E0B
:100BB00097FB16F400940FD057FD05D03DD007FCED
:100BC00002D046F408C050954095309521953F4F8E
:100BD0004F4F5F4F089590958095709561957F4F29
:100BE0008F4F9F4F0895A29FB001B39FC001A39F55
:100BF000700D811D1124911DB29F700D811D112456
:100C0000911D0895B7FF3AC039D0821B930B089508
:100C1000AA1BBB1B51E107C0AA1FBB1FA617B70722
:100C200010F0A61BB70B881F991F5A95A9F780953E
:100C30009095BC01CD010895A1E21A2EAA1BBB1B01
:100C4000FD010DC0AA1FBB1FEE1FFF1FA217B30798
:100C5000E407F50720F0A21BB30BE40BF50B661FAE
:100C6000771F881F991F1A9469F760957095809572
:100C700090959B01AC01BD01CF010895B4DFA59F04
:100C8000900DB49F900DA49F800D911D1124089587
:040C9000F894FFCF06
:100C940001C0F9A4B0999282F880902020202020ED
:100CA4002020202020202020732F770020203A208D
:100CB400203A20200020204469676974616C204335
:100CC4006C6F636B002020202030303A30303A3093
:100CD4003020202020002030303A30303A30303A72
:100CE4003030202020200020202020202020202000
:100CF40020202020002020636C6F636B20736574B8
:100D040074696E672000202020202054494D4552EC
:080D1400202020202020000017
:00000001FF
