S00E00003138303330372E73726563E3
S113000045C0000060C000005EC000005CC000008D
S11300105AC0000058C0000056C0000054C0000080
S113002052C0000050C000004EC000004CC0000090
S11300300BC1000048C0000046C0000060C10000C1
S113004042C0000040C000003EC000003CC00000B0
S11300503AC0000038C0000036C0000034C00000C0
S113006032C0000030C000002EC000002CC00000D0
S11300702AC0000028C0000026C0000024C00000E0
S113008022C0000020C000001EC0000011241FBEBA
S1130090CFEFD0E1DEBFCDBF11E0A0E0B1E0E6E0FC
S11300A0F5E000E00BBF02C007900D92AA30B10743
S11300B0D9F721E0AAE0B1E001C01D92A431B20752
S11300C0E1F7B6D01EC29CCF8FEF84BB15BA08955A
S11300D088E090E04FEF50E09A01082E02C0359579
S11300E027950A94E2F725BB2FEF33EC69E0215002
S11300F030406040E1F700C00000019768F70895C0
S1130100CF93DF93AC01CCE0D1E09C0136952795E9
S11301103695279536952795A5ECB0E2B1D1FC012B
S1130120F295E295EF70EF27FF70EF279F01ADEC9A
S1130130BCECA6D1969587959695879596958795C7
S11301409C01220F331F880F991F880F991F880F56
S1130150991F820F931FE81BF90BE050FF4F80811A
S113016088839A013695279536952795ABE7B4E1B0
S113017087D1FC01F695E7959F01ADECBCEC80D1ED
S11301809695879596958795969587959C01220FC8
S1130190331F880F991F880F991F880F991F820F8B
S11301A0931FE81BF90BE050FF4F808189839A016C
S11301B067D1FC01F695E795F695E795F695E795F1
S11301C09F015ED196958795969587959695879587
S11301D09C01220F331F880F991F880F991F880FC6
S11301E0991F820F931FDF01A81BB90BA050BF4FAB
S11301F08C918A83CF01880F991FEE0FFF1FEE0F9A
S1130200FF1FEE0FFF1FE80FF91F4E1B5F0BFA01D4
S1130210E050FF4F80818B83DF91CF9108958FEF62
S11302208ABB1BBA8FE08093640010926500089526
S11302304BDFF5DF96D082E090E09ED080E090E046
S11302405FDF789445DFFECF1F920F920FB60F92B7
S113025011240BB60F922F933F934F935F936F9399
S11302607F938F939F93AF93BF93EF93FF9380916B
S1130270120190911301019690931301809312013E
S11302808091120190911301843F91402CF11092BE
S1130290130110921201809111018F5F809311015B
S11302A0809111018C3368F010921101809110013A
S11302B08F5F80931001809110018C3310F01092A5
S11302C01001209110018091110190E034E6239FE8
S11302D0800D911D112414DFFF91EF91BF91AF9117
S11302E09F918F917F916F915F914F913F912F914A
S11302F00F900BBE0F900FBE0F901F9018951F927A
S11303000F920FB60F9211240BB60F928F939F93F7
S1130310EF93FF9381E090E000900A0102C0880F00
S1130320991F0A94E2F780936500E0910A01F0E0D6
S1130330E45FFE4F80818BBB80910A018F5F843024
S113034019F080930A0102C010920A01FF91EF9103
S11303509F918F910F900BBE0F900FBE0F901F9027
S113036018958EE083BF8CE781BF87B7826087BF13
S113037016BE10927C000895CF92DF92EF92FF9206
S1130380CF93DF93C82FD92F8FB58FBD8EB58C60D7
S11303908EBDEAE7F0E0808180838EB5877083307C
S11303A089F028F4813041F0823049F013C0843060
S11303B061F0853069F00EC021E030E00BC028E028
S11303C030E008C020E430E005C020E031E002C0A5
S11303D020E034E06901330FEE08FF0860E074E2C6
S11303E084EF90E0A70196012FD0AC2FBD2F57D0FA
S11303F028EE33E040E050E027D0DA01C90101974C
S1130400A109B109892F9A2FAB2FBB27A7FDBA9554
S11304108BBD60E87EE380E090E0A701960114D0F4
S11304202C9F202D112421502ABD1DBC1CBC87B734
S1130430806187BF16BE10927C00DF91CF91FF9040
S1130440EF90DF90CF900895052E97FB16F400945B
S11304500FD057FD05D029D007FC02D046F408C0C0
S113046050954095309521953F4F4F4F5F4F0895DC
S113047090958095709561957F4F8F4F9F4F08950C
S1130480A29FB001B39FC001A39F700D811D1124D1
S1130490911DB29F700D811D1124911D0895B7FF08
S11304A026C025D0821B930B0895A1E21A2EAA1B05
S11304B0BB1BFD010DC0AA1FBB1FEE1FFF1FA21710
S11304C0B307E407F50720F0A21BB30BE40BF50B0D
S11304D0661F771F881F991F1A9469F76095709596
S11304E0809590959B01AC01BD01CF010895C8DFB3
S11304F0A59F900DB49F900DA49F800D911D112474
S10905000895F894FFCFFA
S10D0506C0F9A4B0999282F8809025
S9030000FC
