:1000000045C0000060C000005EC000005CC0000091
:100010005AC0000058C0000056C0000054C0000084
:1000200052C0000050C000004EC000004CC0000094
:100030004AC0000048C0000046C0000044C00000A4
:1000400042C0000040C000003EC000003CC00000B4
:100050003AC0000038C0000036C0000034C00000C4
:1000600032C0000030C000002EC000002CC00000D4
:100070002AC0000028C0000026C0000024C00000E4
:1000800022C0000020C000001EC0000011241FBEBE
:10009000CFEFD0E1DEBFCDBF11E0A0E0B1E0EEECEC
:1000A000F2E000E00BBF02C007900D92AA30B1074A
:1000B000D9F721E0AAE0B1E001C01D92A531B20755
:1000C000E1F7BED002C19CCFCF93DF9340910E01E8
:1000D00050910F01C1E1D1E09A01369527953695EF
:1000E000279536952795A5ECB0E2E0D0FC01F29576
:1000F000E295EF70EF27FF70EF279F01ADECBCECAE
:10010000D5D09695879596958795969587959C01D8
:10011000220F331F880F991F880F991F880F991F6F
:10012000820F931FE81BF90BE050FF4F80818883FB
:100130009A013695279536952795ABE7B4E1B6D069
:10014000FC01F695E7959F01ADECBCECAFD0969520
:10015000879596958795969587959C01220F331FD5
:10016000880F991F880F991F880F991F820F931F5F
:10017000E81BF90BE050FF4F808189839A0196D0EC
:10018000FC01F695E795F695E795F695E7959F01BD
:100190008DD09695879596958795969587959C0190
:1001A000220F331F880F991F880F991F880F991FDF
:1001B000820F931FDF01A81BB90BA050BF4F8C917A
:1001C0008A83CF01880F991FEE0FFF1FEE0FFF1FCD
:1001D000EE0FFF1FE80FF91F4E1B5F0BFA01E050F7
:1001E000FF4F80818B83DF91CF910895CF93DF9371
:1001F000E1E1F1E080E090E041E050E0A5E6B0E030
:100200009A01082E02C0220F331F0A94E2F72C93A2
:1002100021912BBBCFE3DFE12197F1F700C0000074
:1002200001968430910561F7DF91CF9108958FEFAA
:100230008ABB1BBA8FE0809364001092650008951A
:10024000F6DFC4E620910B0180910C0190E0C29F83
:10025000800D911D112490930F0180930E0134DFC6
:10026000C5DF80910A018F5F80930A01813051F7C9
:1002700010920A0180910D018F5F80930D018C33E4
:1002800009F710920D0180910C018F5F80930C0192
:100290008C33C1F610920C0180910B018F5F80931B
:1002A0000B01883179F610920B01CCCFA29FB001DF
:1002B000B39FC001A39F700D811D1124911DB29F9A
:0E02C000700D811D1124911D0895F894FFCF3B
:0A02CE00C0F9A4B0999282F8809064
:00000001FF
