:1000000045C0000060C000005EC000005CC0000091
:100010005AC0000058C0000056C0000054C0000084
:1000200052C0000050C000004EC000004CC0000094
:1000300090C4000048C0000046C0000050C400004A
:1000400042C0000040C000003EC000003CC00000B4
:100050003AC0000038C0000036C0000034C00000C4
:1000600032C0000030C000002EC000002CC00000D4
:100070002AC0000028C0000026C0000024C00000E4
:1000800022C0000020C000001EC0000011241FBEBE
:10009000CFEFD0E1DEBFCDBF11E0A0E0B1E0ECEBEF
:1000A000FDE000E00BBF02C007900D92AA3AB10735
:1000B000D9F721E0AAEAB1E001C01D92A23CB20743
:1000C000E1F792D279C69CCF93B19F7193B995E035
:1000D0009A95F1F7000088BB1F9A85E08A95F1F7A1
:1000E00000001F9895ED9A95F1F70000089593B1DF
:1000F0009F7393B91D9A95E09A95F1F7000088BB1C
:100100001F9A85E08A95F1F700001F9895ED9A9562
:10011000F1F700000895CF93DF93EB01D5DF8881DD
:10012000882329F02196E3DF89918111FCCFDF91AB
:10013000CF9108958FEF87BB82B1806E82B987EC33
:1001400090E00197F1F700C0000083B1806A83B9A5
:1001500087EC90E00197F1F700C000001F9887EC52
:1001600090E00197F1F700C0000088E3ADDF8CE07C
:10017000ABDF86E0A9DF81E0A7DF8FE19EE4019796
:10018000F1F700C0000008958FEF84BB15BA089501
:10019000CF9380910101823009F083C080910001EA
:1001A000882309F487C182EC90E08EDF8091BB0147
:1001B000CDEC8C9F812D112486958695869590E0B7
:1001C000C09695DF8091BB018C9F912D112496954F
:1001D00096959695990F292F220F220F920F891B22
:1001E00090E0C09684DF85EC90E06EDF8091B901ED
:1001F0008C9F812D112486958695869590E0C096DA
:1002000076DF8091B9018C9F912D1124969596955A
:100210009695990F292F220F220F920F891B90E09C
:10022000C09665DF88EC90E04FDF8091B7018C9F2E
:10023000812D112486958695869590E0C09657DF8E
:100240008091B7018C9F912D112496959695969546
:10025000990F292F220F220F920F891B90E0C09631
:1002600046DF8BEC90E030DF8091B5018C9F812DD3
:10027000112486958695869590E0C09638DF80910A
:10028000B5018C9FC12D1124C695C695C695CC0F7E
:100290009C2F990F990FC90F8C1B90E0C09627DFF8
:1002A00009C1823008F06BC09091C101911102C068
:1002B00081115FC084EC90E007DF8091B801CDEC44
:1002C0008C9F812D112486958695869590E0C09609
:1002D0000EDF8091B8018C9F912D112496959695F3
:1002E0009695990F292F220F220F920F891B90E0CC
:1002F000C096FDDE87EC90E0E7DE8091BA018C9F2E
:10030000812D112486958695869590E0C096EFDE26
:100310008091BA018C9F912D112496959695969572
:10032000990F292F220F220F920F891B90E0C09660
:10033000DEDE8AEC90E0C8DE8091BD018C9F812DCD
:10034000112486958695869590E0C096D0DE8091A2
:10035000BD018C9FC12D1124C695C695C695CC0FA5
:100360009C2F990F990FC90F8C1B90E0C096BFDE90
:10037000A1C06FE371E084EC90E0CDDE9BC084EC23
:1003800090E0A2DE9091B601C7E69C02812D112477
:100390008595859597FD8395082E000C990BC09641
:1003A000A6DE8091B6018C02912D1124959595952C
:1003B00087FD9395990F292F220F220F920F891BEA
:1003C000082E000C990BC09692DE87EC90E07CDE44
:1003D0009091BC019C02812D11248595859597FDF6
:1003E0008395082E000C990BC09681DE8091BC018C
:1003F0008C02912D11249595959587FD9395990FD4
:10040000292F220F220F920F891B082E000C990B07
:10041000C0966DDE8AEC90E057DE9091C0019C02A0
:10042000812D11248595859597FD8395082E000CC7
:10043000990BC0965CDE8091C0018C02C12D112405
:10044000C595C59587FDC395CC0F9C2F990F990F26
:10045000C90F8C1B082E000C990BC09648DE8091AA
:10046000C101882339F18091AC01811123C08091B1
:10047000AD0181110AC08AEC90E026DE80E290E0B6
:1004800036DE80E290E033DE15C0813051F487EC37
:1004900090E01ADE80E290E02ADE80E290E027DE43
:1004A00009C084EC90E010DE80E290E020DE80E283
:1004B00090E01DDECF9108958FEF8ABB1BBA8FE1CC
:1004C00080936400109265000895CF93DF93AC0190
:1004D000CEEAD1E09C01369527953695279536953D
:1004E0002795A5ECB0E213D4FC01F295E295EF70EC
:1004F000EF27FF70EF279F01ADECBCEC08D4969579
:10050000879596958795969587959C01220F331F21
:10051000880F991F880F991F880F991F820F931FAB
:10052000E81BF90BEE5FFE4F808188839A013695B8
:10053000279536952795ABE7B4E1E9D3FC01F6950D
:10054000E7959F01ADECBCECE2D396958795969527
:100550008795969587959C01220F331F880F991FC9
:10056000880F991F880F991F820F931FE81BF90BA3
:10057000EE5FFE4F808189839A01C9D3FC01F69515
:10058000E795F695E795F695E7959F01C0D3969583
:10059000879596958795969587959C01220F331F91
:1005A000880F991F880F991F880F991F820F931F1B
:1005B000DF01A81BB90BAE5FBE4F8C918A83CF01C0
:1005C000880F991FEE0FFF1FEE0FFF1FEE0FFF1F8B
:1005D000E80FF91F4E1B5F0BFA01EE5FFE4F8081A3
:1005E0008B83DF91CF91089567DFCEDD82E090E0CD
:1005F000B9D2ADD282E090E007D3FAD080E090E0AB
:1006000064DF98DD68E471E080E890E084DD69E50E
:1006100071E080EC90E07FDD81B38F7081BB7894D6
:10062000D0E0C0E011E001C0C82F8091AB01882369
:1006300019F01092AB01ACDD8091B301882339F041
:100640001092B3016AE771E08CE091E015D1849BD0
:1006500032C0DF5F8FE39CE90197F1F700C0000033
:10066000D83C48F181E090E0DBD0809101018F5FC0
:1006700080930101843018F01092010102C08111B1
:1006800007C069E571E080EC90E045DDD0E013C083
:10069000823039F46AE671E080EC90E03CDDD0E035
:1006A0000AC0833039F469E571E080EC90E033DD15
:1006B000D0E001C0D0E080B3C81709F4B5CF8FE80F
:1006C00091E00197F1F700C00000C0B380910101F3
:1006D0008230E9F4879B08C08091B2018127809322
:1006E000B2011093000192D0869B06C08091000158
:1006F0008127809300018AD0859B09C01092B501A3
:100700001092B7011092B9011092BB017FD0809175
:100710000101813039F5879B0BC08091B8018F5F53
:10072000883118F48093B80102C01092B8016ED0DD
:10073000869B0BC08091BA018F5F8C3318F4809335
:10074000BA0102C01092BA0161D0859B0BC08091A2
:10075000BD018F5F8C3318F48093BD0102C01092ED
:10076000BD0154D080910101833009F05ECF879B99
:1007700003C01093AC014AD0869B2CC08091AD0180
:10078000813081F018F08230C9F023C08091C0011F
:100790008F5F8093C0018091C0018C33D4F01092A0
:1007A000C00117C08091BC018F5F8093BC01809114
:1007B000BC018C3374F01092BC010BC08091B60167
:1007C0008F5F8093B6018091B601843614F0109249
:1007D000B6011CD0859B29CF8091AD018F5F8330FE
:1007E00018F48093AD0102C01092AD010FD01DCF5F
:1007F000139A80E480938B008AE080938A001092A1
:100800008C001092870010928600089584EF91E08A
:10081000909387008093860081E08093B4010895CF
:100820008823F1F090E0E6E8F0E024EF31E0318356
:1008300020834FEF53EC69E0415050406040E1F7B6
:1008400000C00000118210824FEF53EC69E041506C
:1008500050406040E1F700C000009F5F8913E7CF80
:100860000895009741F0EFE9FFE03197F1F700C0FC
:1008700000000197C1F70895EF92FF920F931F9325
:10088000CF93DF938B01FC01208131812033FFE284
:100890003F07F1F0EC0122960F2EF6E8EF2EF12C37
:1008A000F02DF70131832083F801819191918F011F
:1008B000D8DFF701118210828FE39CE90197F1F7ED
:1008C00000C000002991399120339FE2390749F790
:1008D000DF91CF911F910F91FF90EF9008951F929C
:1008E0000F920FB60F9211240BB60F922F938F9386
:1008F0009F93EF93FF93E5E6F0E08081807F808314
:10090000208181E090E00090AA0102C0880F991F29
:100910000A94E2F7822B8083E091AA01F0E0E2558D
:10092000FE4F80818BBB8091AA018F5F843019F0CC
:100930008093AA0102C01092AA01FF91EF919F91AA
:100940008F912F910F900BBE0F900FBE0F901F90A5
:1009500018951F920F920FB60F9211240BB60F929B
:100960002F933F934F935F936F937F938F939F93B7
:10097000AF93BF93EF93FF938091BE019091BF011E
:1009800001969093BF018093BE018091B4018823AA
:1009900081F080913E01815019F080933E0109C0A1
:1009A00084E680933E011092B40110928700109269
:1009B00086008091BE019091BF01843F91400CF46C
:1009C00060C01092BF011092BE018091BD018F5F87
:1009D0008093BD018091AC01882361F18091C001B9
:1009E00081508093C0018091C00188231CF58BE366
:1009F0008093C0018091BC0181508093BC018091A3
:100A0000BC018823BCF48BE38093BC018091B601C8
:100A100081508093B6018091B60188235CF41092D6
:100A2000B6011092BC011092C00181E08093B30125
:100A30001092AC018091BD018C33C0F01092BD01C9
:100A40008091BA018F5F8093BA018091BA018C3393
:100A500068F01092BA018091B8018F5F8093B8015D
:100A60008091B801883110F01092B8012091BA013C
:100A70008091BD0190E034E6239F800D911D1124EB
:100A800024DD8091BE019091BF016AEF70E010D12A
:100A9000892B71F481E08093AB019091C10189278A
:100AA0008093C101E5E6F0E0908180E189278083B1
:100AB0008091B2018823C1F18091BE019091BF0164
:100AC00065E070E0F5D0892B79F58091B5018F5FF5
:100AD0008093B50181E08093AB018091B5018436AC
:100AE00018F11092B5018091B7018F5F8093B70123
:100AF0008091B7018C33C0F01092B7018091B90199
:100B00008F5F8093B9018091B9018C3368F01092A6
:100B1000B9018091BB018F5F8093BB018091BB01C4
:100B2000843610F01092BB01FF91EF91BF91AF910D
:100B30009F918F917F916F915F914F913F912F91F5
:100B40000F900BBE0F900FBE0F901F9018958EE068
:100B500083BF8CE781BF87B7826087BF16BE1092C4
:100B60007C000895CF93DF93EC018FB58FBD8EB5D8
:100B70008C608EBDEAE7F0E0808180838EB587705F
:100B8000833089F028F4813041F0823049F013C07D
:100B9000843061F0853069F00EC021E030E00BC098
:100BA00028E030E008C020E430E005C020E031E07B
:100BB00002C020E034E0032E000C440B550B60E033
:100BC00074E284EF90E087D0DE01B0D028EE33E00D
:100BD00040E050E080D0DA01C9010197A109B109D4
:100BE000892F9A2FAB2FBB27A7FDBA958BBD21501C
:100BF0002ABD1DBC1CBC87B7806187BF16BE109282
:100C00007C00DF91CF910895CF93DF93C82FD92F28
:100C1000EBE8F0E0808180648083EAE8F0E08081A6
:100C20008960808380818770833089F028F48130E7
:100C300041F0823049F013C0843061F0853069F0B2
:100C40000EC021E030E00BC028E030E008C020E416
:100C500030E005C020E031E002C020E034E0032EA7
:100C6000000C440B550B60E87EE380E090E033D04D
:100C7000AC2FBD2F5BD0DC01CB010197A109B109DD
:100C8000892F9A2FAB2FBB27A7FDBA95809387009A
:100C90002C9FE02D1124E150E093860010928900F2
:100CA0001092880016BE10927C00DF91CF910895BB
:100CB00097FB072E16F4009406D077FD08D03CD0A1
:100CC00007FC05D03EF4909581959F4F089570954F
:100CD00061957F4F0895052E97FB16F400940FD071
:100CE00057FD05D03DD007FC02D046F408C0509512
:100CF0004095309521953F4F4F4F5F4F0895909508
:100D00008095709561957F4F8F4F9F4F0895A29F5B
:100D1000B001B39FC001A39F700D811D1124911DCF
:100D2000B29F700D811D1124911D0895B7FF3AC027
:100D300039D0821B930B0895AA1BBB1B51E107C03E
:100D4000AA1FBB1FA617B70710F0A61BB70B881F5B
:100D5000991F5A95A9F780959095BC01CD010895EA
:100D6000A1E21A2EAA1BBB1BFD010DC0AA1FBB1FAF
:100D7000EE1FFF1FA217B307E407F50720F0A21B21
:100D8000B30BE40BF50B661F771F881F991F1A948E
:100D900069F760957095809590959B01AC01BD01B8
:100DA000CF010895B4DFA59F900DB49F900DA49F2F
:0C0DB000800D911D11240895F894FFCFD0
:100DBC000103C0F9A4B0999282F88090FC04FC0461
:100DCC0070047004FC04FC04ED05FC04FC04ED054B
:100DDC00ED05A706FC04FC0470047004FC04FC0480
:100DEC00ED05FC04ED05A706ED057707302F642013
:100DFC00203A20203A2020002020204B4343492039
:100E0C00436C6F636B202020002020202030303A70
:100E1C0030303A30302020202000202030303A3042
:100E2C00303A30303A303020200055015501550110
:100E3C00550155015501AA025501550155015501A0
:100E4C005405550155015501550155015501AA028D
:0A0E5C0055015501550155015405DB
:00000001FF
