S01900003138303332365F63616C63756C61746F722E737265634E
S11300004FC000006AC0000068C0000066C0000065
S113001064C0000062C0000060C000005EC0000058
S11300205CC000005AC0000058C0000056C0000068
S1130030BAC3000052C0000050C000007AC30000E0
S11300404CC000004AC0000048C0000046C0000088
S113005044C0000042C0000040C000003EC0000098
S11300603CC000003AC0000038C0000036C00000A8
S113007034C0000032C0000011C400002EC00000D3
S11300802CC000002AC0000028C000003C024B0223
S11300905B026B027B028B029B02AB02BB02CB02B4
S11300A011241FBECFEFD0E1DEBFCDBF11E0A0E031
S11300B0B1E0E6E5FBE000E00BBF02C007900D9263
S11300C0AC32B107D9F721E0ACE2B1E001C01D9236
S11300D0AF33B207E1F792D13CC592CFCF93DF9310
S11300E0AC01CDE2D1E09C01369527953695279554
S11300F036952795A5ECB0E2FBD4FC01F295E29588
S1130100EF70EF27FF70EF279F01ADECBCECF0D44C
S11301109695879596958795969587959C01220F38
S1130120331F880F991F880F991F880F991F820FFB
S1130130931FE81BF90BE050FF4F808188839A01DD
S11301403695279536952795ABE7B4E1D1D4FC01D4
S1130150F695E7959F01ADECBCECCAD496958795CE
S113016096958795969587959C01220F331F880F46
S1130170991F880F991F880F991F820F931FE81BDF
S1130180F90BE050FF4F808189839A01B1D4FC01BF
S1130190F695E795F695E795F695E7959F01A8D42A
S11301A09695879596958795969587959C01220FA8
S11301B0331F880F991F880F991F880F991F820F6B
S11301C0931FDF01A81BB90BA050BF4F8C918A83EA
S11301D0CF01880F991FEE0FFF1FEE0FFF1FEE0FC9
S11301E0FF1FE80FF91F4E1B5F0BFA01E050FF4F92
S11301F080818B83DF91CF91089593B19F7193B9DF
S113020095E09A95F1F7000088BB1F9A85E08A95DE
S1130210F1F700001F9895ED9A95F1F70000089505
S113022093B19F7393B91D9A95E09A95F1F70000E5
S113023088BB1F9A85E08A95F1F700001F9895ED19
S11302409A95F1F700000895CF93DF93EB01D5DF82
S11302508881882329F02196E3DF89918111FCCFDD
S1130260DF91CF9108958FEF87BB82B1806E82B901
S113027087EC90E00197F1F700C0000083B1806A39
S113028083B987EC90E00197F1F700C000001F9854
S113029087EC90E00197F1F700C0000088E3ADDF40
S11302A08CE0ABDF86E0A9DF81E0A7DF8FE19EE48D
S11302B00197F1F700C0000008950F931F93CF93A7
S11302C0DF93EC019C01329522952F7023273F7018
S11302D02327A7E4B3E00CD48C0116950795169553
S11302E007951695079580E3800F9ADF20E137E2A2
S11302F0029FC001039F900D129F900D11249E0137
S1130300281B390B369527953695279536952795CD
S1130310A5ECB0E2EDD3929582958F7089279F70FA
S11303208927805D7DDF9E01369527953695279533
S113033036952795A5ECB0E2DBD3929582958F7024
S113034089279F70892748EE53E0849F9001859FF9
S1130350300D949F300D1124CE01821B930B9C0110
S11303603695279536952795ABE7B4E1C1D3969595
S11303708795805D55DF9E0136952795369527959F
S1130380ABE7B4E1B5D39695879544E6489F9001D1
S1130390499F300D1124CE01821B930B9C01ADECBF
S11303A0BCECA6D396958795969587959695879553
S11303B0805D36DF9E01ADECBCEC9AD396958795B3
S11303C096958795969587959C01220F331F880FE4
S11303D0991F880F991F880F991F820F931F9E01E1
S11303E0281B390BC901805D1BDFDF91CF911F9161
S11303F00F9108958FEF84BB15BA089580E895E2B4
S113040002D3F8DF30DF6AE071E080E890E01CDFBF
S11304106BE171E080EC90E017DF789410E0E12C60
S1130420F12CC0E0D0E0BB24B3946894CC24C1F890
S11304306894DD24D2F803E0912CA12C8091310141
S11304408823E1F380913101803308F4B6C08091B0
S113045031018A3308F0B1C088E190E0CEDEE0914A
S113046031018E2F90E0FC01F097EA30F10508F09D
S1130470A1C0EA5BFF4F33C3CE01880F991FCC0F95
S1130480DD1FCC0FDD1FCC0FDD1FC80FD91F80E38C
S113049090E0C6DE8FC0CE01880F991FCC0FDD1F00
S11304A0CC0FDD1FCC0FDD1FC80FD91F219681E3B0
S11304B090E0B6DE7FC0CE01880F991FCC0FDD1F00
S11304C0CC0FDD1FCC0FDD1FC80FD91F229682E38E
S11304D090E0A6DE6FC0CE01880F991FCC0FDD1F00
S11304E0CC0FDD1FCC0FDD1FC80FD91F239683E36C
S11304F090E096DE5FC0CE01880F991FCC0FDD1F00
S1130500CC0FDD1FCC0FDD1FC80FD91F249684E349
S113051090E086DE4FC0CE01880F991FCC0FDD1FFF
S1130520CC0FDD1FCC0FDD1FC80FD91F259685E327
S113053090E076DE3FC0CE01880F991FCC0FDD1FFF
S1130540CC0FDD1FCC0FDD1FC80FD91F269686E305
S113055090E066DE2FC0CE01880F991FCC0FDD1FFF
S1130560CC0FDD1FCC0FDD1FC80FD91F279687E3E3
S113057090E056DE1FC0CE01880F991FCC0FDD1FFF
S1130580CC0FDD1FCC0FDD1FC80FD91F289688E3C1
S113059090E046DE0FC0CE01880F991FCC0FDD1FFF
S11305A0CC0FDD1FCC0FDD1FC80FD91F299689E39F
S11305B090E036DE1092310141CF809131018B32CF
S11305C089F0809131018D3269F0809131018A3254
S11305D049F0809131018F3229F0809131018D33BE
S11305E009F02CCF209709F48FC0112309F439C0E6
S11305F0123061F018F4113031F01BC0133059F08F
S1130600143091F016C0CE0DDF1D14C0C7018C1B31
S11306109D0BEC010FC0CE018E9DE0018F9DD00D8E
S11306209E9DD00D112406C0C701BE0115D2EB0159
S113063001C0E70181E090E0E0DD8FE19EE40197F5
S1130640F1F700C000008BEC90E0D7DDCE0135DE81
S1130650CE013CD18AE090E031D18DE090E02ED102
S11306607E01809131018D3209F128F48A3299F0AA
S11306708B3231F045C08F3221F1833669F140C0AD
S113068088E190E0BADD8BE290E0CADD7E011B2DAB
S1130690C0E0D0E036C088E190E0AFDD8AE290E0CF
S11306A0BFDD7E01102FC0E0D0E02BC088E190E0D8
S11306B0A4DD8DE290E0B4DD7E011C2DC0E0D0E02D
S11306C020C088E190E099DD8FE290E0A9DD7E0111
S11306D01D2DC0E0D0E015C081E090E08EDD8FE1FB
S11306E09EE40197F1F700C000006AE071E080E841
S11306F090E0AADD10E0E92CFA2CC0E0D0E001C0C3
S113070010E0109231019ACE809131018B3249F080
S113071018F48A3251F092CE8D3229F08F3239F0AA
S11307208DCE1B2D8BCE1C2D89CE102F87CE1D2D4B
S113073085CE1F920F920FB60F9211240BB60F9213
S11307402F938F939F93EF93FF93E5E6F0E08081DF
S1130750807F8083208181E090E000902C0102C0A2
S1130760880F991F0A94E2F7822B8083E0912C0171
S1130770F0E0E35DFE4F80818BBB80912C018F5FA5
S1130780843019F080932C0102C010922C01FF9147
S1130790EF919F918F912F910F900BBE0F900FBEF1
S11307A00F901F9018951F920F920FB60F9211245D
S11307B00BB60F922F933F934F935F936F937F9357
S11307C08F939F93AF93BF93EF93FF9380913B01DC
S11307D090913C01019690933C0180933B01809160
S11307E03B0190913C01843F914084F110923C0183
S11307F010923B0180913A018F5F80933A0180917E
S11308003A018C33C0F010923A01809137018F5F26
S113081080933701809137018C3368F0109237014F
S1130820809135018F5F8093350180913501883146
S113083010F0109235012091370180913A0190E037
S113084034E6239F800D911D112448DC80913B01E7
S113085090913C016AEF70E013D1892B61F490917F
S11308603E0181E0892780933E01E5E6F0E0908136
S113087080E189278083FF91EF91BF91AF919F9190
S11308808F917F916F915F914F913F912F910F9035
S11308900BBE0F900FBE0F901F9018951F920F92D2
S11308A00FB60F9211248F9380919C008093310195
S11308B08F910F900FBE0F901F901895EBE9F0E009
S11308C0908195FFFDCF80939C0008950F931F9313
S11308D0CF93DF93EC019C01329522952F7023274F
S11308E03F702327A7E4B3E003D18C011695079545
S11308F0169507951695079580E3800FDFDF20E1B5
S113090037E2029FC001039F900D129F900D1124A6
S11309109E01281B390B36952795369527953695D4
S11309202795A5ECB0E2E4D0929582958F70892743
S11309309F708927805DC2DF9E0136952795369585
S1130940279536952795A5ECB0E2D2D0929582955D
S11309508F7089279F70892748EE53E0849F900108
S1130960859F300D949F300D1124CE01821B930B73
S11309709C013695279536952795ABE7B4E1B8D019
S113098096958795805D9ADF9E01369527953695D5
S11309902795ABE7B4E1ACD09695879544E6489F9C
S11309A09001499F300D1124CE01821B930B9C01B1
S11309B0ADECBCEC9DD096958795969587959695CC
S11309C08795805D7BDF9E01ADECBCEC91D0969564
S11309D0879596958795969587959C01220F331F49
S11309E0880F991F880F991F880F991F820F931FD3
S11309F09E01281B390BC901805D60DFDF91CF9117
S1130A001F910F9108959C0140E050E060E472E46E
S1130A108FE090E048D0DA01C9010197A109B1093A
S1130A20892F9A2FAB2FBB27A7FDBA9580939800E7
S1130A3021502093990010929B0088E980939A009A
S1130A4086E080939D0080919C008FE99FE0019750
S1130A50F1F700C000000895AA1BBB1B51E107C0B9
S1130A60AA1FBB1FA617B70710F0A61BB70B881F3A
S1130A70991F5A95A9F780959095BC01CD010895C9
S1130A8097FB072E16F4009406D077FD08D0E4DF18
S1130A9007FC05D03EF4909581959F4F089570957D
S1130AA061957F4F0895052E97FB16F400940FD09F
S1130AB057FD05D02CD007FC02D046F408C0509551
S1130AC04095309521953F4F4F4F5F4F0895909536
S1130AD08095709561957F4F8F4F9F4F0895EE0FCE
S1130AE0FF1F0024001C0BBE0790F691E02D099413
S1130AF0A29FB001B39FC001A39F700D811D11245B
S1130B00911DB29F700D811D1124911D0895A1E2C4
S1130B101A2EAA1BBB1BFD010DC0AA1FBB1FEE1F73
S1130B20FF1FA217B307E407F50720F0A21BB30BBE
S1130B30E40BF50B661F771F881F991F1A9469F73A
S1130B4060957095809590959B01AC01BD01CF0196
S1090B500895F894FFCFA4
S1130B56C0F9A4B0999282F8809020202063616C39
S1130B6663756C61746F7220202000202020202081
S10F0B762020202020202020202020000F
S9030000FC
