S01A0000736F6E696353656E736F725F3138303430332E73726563E5
S113000045C0000060C000005EC000005CC000008D
S11300105AC00000F5C00000FEC0000054C000003B
S113002052C00000D4C100004EC000004CC000000B
S113003041C1000048C0000046C0000096C1000055
S113004042C0000040C000003EC000003CC00000B0
S11300503AC0000038C0000036C0000034C00000C0
S113006032C0000030C000002EC000002CC00000D0
S11300702AC0000028C0000026C0000024C00000E0
S113008022C0000020C000001EC0000011241FBEBA
S1130090CFEFD0E1DEBFCDBF11E0A0E0B1E0EEEBE9
S11300A0F4E000E00BBF02C007900D92AA30B10744
S11300B0D9F721E0AAE0B1E001C01D92A631B20750
S11300C0E1F7D6D0FAC19CCF8FEF8ABB1BBA8FE180
S11300D080936400109265000895CF93DF93AC0180
S11300E0CCE0D1E09C013695279536952795369539
S11300F02795A5ECB0E2BED1FC01F295E295EF7034
S1130100EF27FF70EF279F01ADECBCECB3D19695C0
S1130110879596958795969587959C01220F331F11
S1130120880F991F880F991F880F991F820F931F9B
S1130130E81BF90BE050FF4F808188839A013695C4
S1130140279536952795ABE7B4E194D1FC01F69554
S1130150E7959F01ADECBCEC8DD19695879596956E
S11301608795969587959C01220F331F880F991FB9
S1130170880F991F880F991F820F931FE81BF90B93
S1130180E050FF4F808189839A0174D1FC01F69578
S1130190E795F695E795F695E7959F016BD19695CA
S11301A0879596958795969587959C01220F331F81
S11301B0880F991F880F991F880F991F820F931F0B
S11301C0DF01A81BB90BA050BF4F8C918A83CF01CC
S11301D0880F991FEE0FFF1FEE0FFF1FEE0FFF1F7B
S11301E0E80FF91F4E1B5F0BFA01E050FF4F8081AF
S11301F08B83DF91CF9108958FEF84BB15BA089557
S11302001F920F920FB60F92112414BC0F900FBEC1
S11302100F901F9018951F920F920FB60F921124F2
S11302205F936F937F938F939F93AF93BF9384B5A3
S1130230809311018091110190E00196002496951C
S113024087950794969587950794982F802D6AE350
S113025070E0FDD060931001BF91AF919F918F9199
S11302607F916F915F910F900FBE0F901F90189523
S11302708BE08ABF80E389BF80E482B9DAD0E4D01E
S113028023DF80E090E029DFB7DF78941E9A25E32E
S11302902A95F1F700001E988FEF93ED20E381502B
S11302A090402040E1F700C000008091100190E0F0
S11302B014DFECCF1F920F920FB60F9211240BB6DE
S11302C00F922F933F934F935F936F937F938F93EB
S11302D09F93AF93BF93EF93FF93809114019091F9
S11302E015010196909315018093140180911401D6
S11302F090911501843F91402CF1109215011092B8
S11303001401809113018F5F809313018091130175
S11303108C3368F010921301809112018F5F8093E7
S11303201201809112018C3310F01092120120916D
S113033012018091130190E034E6239F800D911DFA
S11303401124CBDEFF91EF91BF91AF919F918F91DB
S11303507F916F915F914F913F912F910F900BBEC1
S11303600F900FBE0F901F9018951F920F920FB60B
S11303700F9211240BB60F928F939F93EF93FF93D9
S113038081E090E000900B0102C0880F991F0A944D
S1130390E2F780936500E0910B01F0E0E45FFE4F2B
S11303A080818BBB80910B018F5F843019F0809327
S11303B00B0102C010920B01FF91EF919F918F915D
S11303C00F900BBE0F900FBE0F901F9018951F92A9
S11303D00F920FB60F9211240BB60F928F939F9327
S11303E0EF93FF9381E090E000900A0102C0880F30
S11303F0991F0A94E2F780936500E0910A01F0E006
S1130400E45FFE4F80818BBB80910A018F5F843053
S113041019F080930A0102C010920A01FF91EF9132
S11304209F918F910F900BBE0F900FBE0F901F9056
S113043018958EE083BF8CE781BF87B7826087BF42
S113044016BE10927C00089585E085BD089597FB43
S1130450072E16F4009406D077FD08D01AD007FCB6
S113046005D03EF4909581959F4F089570956195C0
S11304707F4F0895A29FB001B39FC001A39F700D49
S1130480811D1124911DB29F700D811D1124911D98
S11304900895AA1BBB1B51E107C0AA1FBB1FA617C7
S11304A0B70710F0A61BB70B881F991F5A95A9F719
S11104B080959095BC01CD010895F894FFCF7E
S10D04BEC0F9A4B0999282F880906E
S9030000FC
