:100000005FC000007AC0000078C0000076C0000029
:1000100074C0000072C0000070C000006EC000001C
:100020006CC000006AC0000068C0000066C000002C
:1000300056C3000062C0000060C0000016C300008C
:100040005CC000005AC0000058C0000056C000004C
:1000500054C0000052C0000050C000004EC000005C
:100060004CC000004AC0000048C0000046C000006C
:1000700044C0000042C00000ADC300003EC000000C
:100080003CC000003AC0000038C000007E015E01A4
:10009000600162016401660168016A016C016E0120
:1000A000700172017401760178017A013202430213
:1000B00054026502760287029802A902BA0223025C
:1000C00011241FBECFEFD0E1DEBFCDBF11E0A0E015
:1000D000B1E0E0EBF8E000E00BBF02C007900D924A
:1000E000AC31B107D9F721E0ACE1B1E001C01D921C
:1000F000AE32B207E1F764D1D9C382CFCF93DF9399
:10010000AC01CDE1D1E09C01369527953695279538
:1001100036952795A5ECB0E2BAD3FC01F295E295AD
:10012000EF70EF27FF70EF279F01ADECBCECAFD372
:100130009695879596958795969587959C01220F1C
:10014000331F880F991F880F991F880F991F820FDF
:10015000931FE81BF90BE050FF4F808188839A01C1
:100160003695279536952795ABE7B4E190D3FC01FA
:10017000F695E7959F01ADECBCEC89D396958795F4
:1001800096958795969587959C01220F331F880F2A
:10019000991F880F991F880F991F820F931FE81BC3
:1001A000F90BE050FF4F808189839A0170D3FC01E5
:1001B000F695E795F695E795F695E7959F0167D350
:1001C0009695879596958795969587959C01220F8C
:1001D000331F880F991F880F991F880F991F820F4F
:1001E000931FDF01A81BB90BA050BF4F8C918A83CE
:1001F000CF01880F991FEE0FFF1FEE0FFF1FEE0FAD
:10020000FF1FE80FF91F4E1B5F0BFA01E050FF4F75
:1002100080818B83DF91CF91089580EF81BB12BAEB
:10022000089580B38F70813041F0823041F0843086
:1002300041F0883041F080E0089581E0089582E047
:10024000089583E0089584E00895FF920F931F932B
:10025000CF93DF93C0E0D0E000E110E0FC2E9801E6
:100260000C2E02C0220F331F0A94E2F722BB8FE349
:100270009CE90197F1F700C00000D3DF882359F013
:100280008FE39FE10197F1F700C00000CADFFF0C88
:10029000FF0C8F0D04C02196C430D105F9F6DF9113
:1002A000CF911F910F91FF90089590E0FC0131973D
:1002B000E031F10508F5EA5BFF4FE0C280E1089507
:1002C0008FE008958EE0089581E0089582E008951A
:1002D00083E008958DE0089584E0089585E0089511
:1002E00086E008958CE0089587E0089588E00895F9
:1002F00089E008958BE0089580E008958AE00895EC
:1003000093B19F7193B995E09A95F1F7000088BB7E
:100310001F9A85E08A95F1F700001F9895ED9A9550
:10032000F1F70000089593B19F7393B91D9A95E07A
:100330009A95F1F7000088BB1F9A85E08A95F1F73E
:1003400000001F9895ED9A95F1F700000895CF935E
:10035000DF93EB01D5DF8881882329F02196E3DF45
:1003600089918111FCCFDF91CF9108958FEF87BBE9
:1003700082B1806E82B987EC90E00197F1F700C0FE
:10038000000083B1806A83B987EC90E00197F1F7B0
:1003900000C000001F9887EC90E00197F1F700C0C3
:1003A000000088E3ADDF8CE0ABDF86E0A9DF81E011
:1003B000A7DF8FE19EE40197F1F700C000000895E8
:1003C000CF93DF931F92CDB7DEB7198226DFCEDF42
:1003D0006BE071E080E890E0BADF8FEC90E090DFB6
:1003E000E12CF12C00E010E00F2EF3E08F2EF02D29
:1003F000C12CD12C6894992492F8AA24A3946894CF
:10040000BB24B1F822DF51DF80930A0181508A308A
:1004100008F0C0C088E190E073DF2FEB87E299E03D
:10042000215080409040E1F700C00000E0910A01B7
:100430008E2F90E0FC013197EA30F10508F0AAC058
:10044000EA5AFF4F1BC2C801880F991F000F111FE6
:10045000000F111F000F111F080F191F80E390E0FC
:1004600062DF98C0C801880F991F000F111F000F8D
:10047000111F000F111F080F191F0F5F1F4F81E37E
:1004800090E051DF87C0C801880F991F000F111F2E
:10049000000F111F000F111F080F191F0E5F1F4FB4
:1004A00082E390E040DF76C0C801880F991F000FFB
:1004B000111F000F111F000F111F080F191F0D5FD3
:1004C0001F4F83E390E02FDF65C0C801880F991F9D
:1004D000000F111F000F111F000F111F080F191F10
:1004E0000C5F1F4F84E390E01EDF54C0C801880FEB
:1004F000991F000F111F000F111F000F111F080F70
:10050000191F0B5F1F4F85E390E00DDF43C0C8014B
:10051000880F991F000F111F000F111F000F111FCF
:10052000080F191F0A5F1F4F86E390E0FCDE32C000
:10053000C801880F991F000F111F000F111F000F16
:10054000111F080F191F095F1F4F87E390E0EBDEB3
:1005500021C0C801880F991F000F111F000F111F24
:10056000000F111F080F191F085F1F4F88E390E04D
:10057000DADE10C0C801880F991F000F111F000F8D
:10058000111F000F111F080F191F075F1F4F89E36D
:1005900090E0C9DE80910A0195EF980F963008F03F
:1005A00031CF0115110509F42DCF8D30D9F028F484
:1005B0008B3041F08C3071F025CF8E30D9F08F30F8
:1005C00009F120CFA9828BE290E0ADDE78010C2DFD
:1005D0001D2D18CFB9828DE290E0A5DE78010C2D9B
:1005E0001D2D10CF89828AE290E09DDE78010C2DCE
:1005F0001D2D08CF99828FE290E095DE78010C2DB9
:100600001D2D00CF8981813039F4E00EF11EC70124
:100610008ADE0C2D1D2DF6CE8981823039F4E01A48
:10062000F10AC70180DE0C2D1D2DECCE89818330AF
:1006300069F4C701809F7001819FF00C909FF00CBE
:100640001124C70170DE0C2D1D2DDCCE8981843074
:1006500009F0D8CEC701B801EAD0862F972FE62E31
:10066000F72E61DE0C2D1D2DCDCE1F920F920FB6F1
:100670000F9211240BB60F922F938F939F93EF93AA
:10068000FF93E5E6F0E08081807F8083208181E038
:1006900090E000901C0102C0880F991F0A94E2F7B5
:1006A000822B8083E0911C01F0E0E35EFE4F8081AD
:1006B0008BBB80911C018F5F843019F080931C01EB
:1006C00002C010921C01FF91EF919F918F912F9189
:1006D0000F900BBE0F900FBE0F901F9018951F929A
:1006E0000F920FB60F9211240BB60F922F933F93D8
:1006F0004F935F936F937F938F939F93AF93BF932A
:10070000EF93FF9380912A0190912B010196909392
:100710002B0180932A0180912A0190912B01843F23
:10072000914084F110922B0110922A0180912901AD
:100730008F5F80932901809129018C33C0F0109242
:100740002901809126018F5F8093260180912601E7
:100750008C3368F010922601809124018F5F809382
:10076000240180912401883110F0109224012091FD
:1007700026018091290190E034E6239F800D911D90
:100780001124BCDC80912A0190912B016AEF70E06A
:1007900062D0892B61F490912D0181E089278093AB
:1007A0002D01E5E6F0E0908180E189278083FF91CB
:1007B000EF91BF91AF919F918F917F916F915F91D9
:1007C0004F913F912F910F900BBE0F900FBE0F9046
:1007D0001F9018951F920F920FB60F9211240BB60F
:1007E0000F922F933F934F935F936F937F938F93CA
:1007F0009F93AF93BF93EF93FF9380919C0090E002
:1008000092DD85B3880F85BBFF91EF91BF91AF91CA
:100810009F918F917F916F915F914F913F912F9118
:100820000F900BBE0F900FBE0F901F901895AA1B34
:10083000BB1B51E107C0AA1FBB1FA617B70710F0CB
:10084000A61BB70B881F991F5A95A9F780959095FD
:10085000BC01CD01089597FB072E16F4009406D035
:1008600077FD08D0E4DF07FC05D03EF49095819534
:100870009F4F0895709561957F4F0895EE0FFF1F6C
:100880000024001C0BBE0790F691E02D0994A29F56
:10089000B001B39FC001A39F700D811D1124911D54
:1008A000B29F700D811D1124911D0895F894FFCF02
:1008B000C0F9A4B0999282F880900A202020636148
:0C08C0006C63756C61746F722020200066
:00000001FF
