:1000000045C0000060C000005EC000005CC0000091
:100010005AC0000058C0000056C0000054C0000084
:1000200052C0000050C000004EC000004CC0000094
:10003000F5C0000048C0000046C0000063C10000D9
:1000400042C0000040C000003EC000003CC00000B4
:100050003AC0000038C0000036C0000034C00000C4
:1000600032C0000030C000002EC000002CC00000D4
:100070002AC0000028C0000026C0000024C00000E4
:1000800022C0000020C000001EC0000011241FBEBE
:10009000CFEFD0E1DEBFCDBF11E0A0E0B1E0ECE0FA
:1000A000F5E000E00BBF02C007900D92AC30B10745
:1000B000D9F721E0ACE0B1E001C01D92A931B2074F
:1000C000E1F7A1D021C29CCFCF93DF93AC01CEE06A
:1000D000D1E09C013695279536952795369527953D
:1000E000A5ECB0E2D0D1FC01F295E295EF70EF27DC
:1000F000FF70EF279F01ADECBCECC5D196958795BD
:1001000096958795969587959C01220F331F880FAA
:10011000991F880F991F880F991F820F931FE81B43
:10012000F90BE050FF4F808188839A01369527951F
:1001300036952795ABE7B4E1A6D1FC01F695E79596
:100140009F01ADECBCEC9FD19695879596958795D0
:10015000969587959C01220F331F880F991F880F52
:10016000991F880F991F820F931FE81BF90BE0500E
:10017000FF4F808189839A0186D1FC01F695E7952E
:10018000F695E795F695E7959F017DD1969587952C
:1001900096958795969587959C01220F331F880F1A
:1001A000991F880F991F880F991F820F931FDF01D6
:1001B000A81BB90BA050BF4F8C918A83CF01880F29
:1001C000991FEE0FFF1FEE0FFF1FEE0FFF1FE80F2F
:1001D000F91F4E1B5F0BFA01E050FF4F80818B83AC
:1001E000DF91CF9108958FEF8ABB1BBA8FE3809385
:1001F0006400109265000895865F9E4FFC01808127
:10020000809312010895EFDFAFD082E090E0B7D085
:10021000F3DF80E090E058DF7894FFCF1F920F92D9
:100220000FB60F9211240BB60F922F933F934F935B
:100230005F936F937F938F939F93AF93BF93EF934E
:10024000FF938091150190911601019690931601EC
:10025000809315018091150190911601843F914082
:100260000CF43DC0109216011092150180911401FA
:100270008F5F80931401809117019091180101966E
:1002800090931801809317018091170190911801A4
:10029000019721F410921801109217018091170113
:1002A00090911801A9DF809114018C3368F01092AD
:1002B0001401809113018F5F8093130180911301CA
:1002C0008C3310F0109213012091130180911401CE
:1002D00090E034E6239F800D911D1124F5DEFF91FF
:1002E000EF91BF91AF919F918F917F916F915F91AE
:1002F0004F913F912F910F900BBE0F900FBE0F901B
:100300001F9018951F920F920FB60F9211240BB6E3
:100310000F928F939F93EF93FF9381E090E0009073
:100320000C0102C0880F991F0A94E2F780936500C0
:10033000E0910C01F0E0E25FFE4F80818BBB809189
:100340000C018F5F853019F080930C0102C0109270
:100350000C01FF91EF919F918F910F900BBE0F9029
:100360000FBE0F901F9018958EE083BF8CE781BF62
:1003700087B7826087BF16BE10927C000895CF9227
:10038000DF92EF92FF92CF93DF93C82FD92F8FB5D3
:100390008FBD8EB58C608EBDEAE7F0E080818083F2
:1003A0008EB58770833089F028F4813041F0823037
:1003B00049F013C0843061F0853069F00EC021E04F
:1003C00030E00BC028E030E008C020E430E005C099
:1003D00020E031E002C020E034E06901330FEE0894
:1003E000FF0860E074E284EF90E0A70196012FD04F
:1003F000AC2FBD2F57D028EE33E040E050E027D09F
:10040000DA01C9010197A109B109892F9A2FAB2FF0
:10041000BB27A7FDBA958BBD60E87EE380E090E046
:10042000A701960114D02C9F202D112421502ABD04
:100430001DBC1CBC87B7806187BF16BE10927C00B4
:10044000DF91CF91FF90EF90DF90CF900895052E30
:1004500097FB16F400940FD057FD05D029D007FC68
:1004600002D046F408C050954095309521953F4FF5
:100470004F4F5F4F089590958095709561957F4F90
:100480008F4F9F4F0895A29FB001B39FC001A39FBC
:10049000700D811D1124911DB29F700D811D1124BD
:1004A000911D0895B7FF26C025D0821B930B089598
:1004B000A1E21A2EAA1BBB1BFD010DC0AA1FBB1F68
:1004C000EE1FFF1FA217B307E407F50720F0A21BDA
:1004D000B30BE40BF50B661F771F881F991F1A9447
:1004E00069F760957095809590959B01AC01BD0171
:1004F000CF010895C8DFA59F900DB49F900DA49FD4
:0C050000800D911D11240895F894FFCF88
:0C050C00C0F9A4B0999282F88090000120
:00000001FF
