S00B000050574D2E7372656325
S113000045C0000060C000005EC000005CC000008D
S11300105AC0000058C0000056C0000054C0000080
S113002052C0000050C000004EC000004CC0000090
S1130030F5C1000048C0000046C00000B5C1000082
S113004042C0000040C000003EC000003CC00000B0
S11300503AC0000038C0000036C0000034C00000C0
S113006032C0000030C000002EC000002CC00000D0
S11300702AC0000028C0000026C0000024C00000E0
S113008022C0000020C000001EC0000011241FBEBA
S1130090CFEFD0E1DEBFCDBF11E0A0E0B1E0E4E0FE
S11300A0F7E000E00BBF02C007900D92AC32B1073D
S11300B0D9F721E0ACE2B1E001C01D92AE33B20742
S11300C0E1F73DD11DC39CCF80EC87B987E886B9A1
S11300D08FE193E00197F1F700C0000008958FEFDE
S11300E08ABB1BBA8FE18093640010926500089567
S11300F0CF93DF93AC01CDE2D1E09C0136952795F7
S11301003695279536952795A5ECB0E2A4D2FC0147
S1130110F295E295EF70EF27FF70EF279F01ADECAA
S1130120BCEC99D2969587959695879596958795E3
S11301309C01220F331F880F991F880F991F880F66
S1130140991F820F931FE81BF90BE050FF4F80812A
S113015088839A013695279536952795ABE7B4E1C0
S11301607AD2FC01F695E7959F01ADECBCEC73D215
S11301709695879596958795969587959C01220FD8
S1130180331F880F991F880F991F880F991F820F9B
S1130190931FE81BF90BE050FF4F808189839A017C
S11301A05AD2FC01F695E795F695E795F695E7950D
S11301B09F0151D2969587959695879596958795A3
S11301C09C01220F331F880F991F880F991F880FD6
S11301D0991F820F931FDF01A81BB90BA050BF4FBB
S11301E08C918A83CF01880F991FEE0FFF1FEE0FAA
S11301F0FF1FEE0FFF1FE80FF91F4E1B5F0BFA01E5
S1130200E050FF4F80818B83DF91CF91089593B1AC
S11302109F7193B995E09A95F1F7000088BB1F9AF6
S113022085E08A95F1F700001F9895ED9A95F1F70E
S11302300000089593B19F7393B91D9A95E09A9520
S1130240F1F7000088BB1F9A85E08A95F1F700005A
S11302501F9895ED9A95F1F700000895CF93DF93D9
S1130260EB01D5DF8881882329F02196E3DF89918A
S11302708111FCCFDF91CF9108958FEF87BB82B1BD
S1130280806E82B987EC90E00197F1F700C000001E
S113029083B1806A83B987EC90E00197F1F700C0DD
S11302A000001F9887EC90E00197F1F700C0000070
S11302B088E3ADDF8CE0ABDF86E0A9DF81E0A7DF78
S11302C08FE19EE40197F1F700C0000008958FEFDD
S11302D084BB15BA08950F931F93CF93DF938C01BA
S11302E084EC90E094DFC80160E177E285D1CB0132
S11302F0C096A0DFC80168EE73E07ED1CB01CAE0EE
S1130300D0E0BE0179D1C09695DFC80164E670E003
S113031073D1CB01BE0170D1C0968CDFC801BE0180
S11303206BD18C01CB01BE0167D1C09683DFC801BC
S1130330C09680DFDF91CF911F910F910895CFDE9A
S1130340C6DF82E090E0F0D0E4D0BEDE3FD180E0B2
S113035090E0CEDE92DF6AE071E080E890E07EDF3C
S11303606BE171E080EC90E079DF81B38F7081BB49
S1130370789406E810E0C7E8D3E1F801D183C0839C
S1130380CE01A9DF2196CF31FEE4DF07B1F7CFE13B
S1130390DEE4F801D183C083CE019DDF2197C63806
S11303A0F3E1DF07B1F7E7CF1F920F920FB60F9279
S11303B011240BB60F922F938F939F93EF93FF9378
S11303C0E5E6F0E08081807F8083208181E090E019
S11303D000902C0102C0880F991F0A94E2F7822B27
S11303E08083E0912C01F0E0E35DFE4F80818BBBC4
S11303F080912C018F5F843019F080932C0102C00E
S113040010922C01FF91EF919F918F912F910F905A
S11304100BBE0F900FBE0F901F9018951F920F9256
S11304200FB60F9211240BB60F922F933F934F9355
S11304305F936F937F938F939F93AF93BF93EF9348
S1130440FF9380913A0190913B01019690933B0177
S113045080933A0180913A0190913B01843F91400D
S113046084F110923B0110923A01809139018F5F1F
S113047080933901809139018C33C0F01092390195
S1130480809136018F5F80933601809136018C33E1
S113049068F010923601809134018F5F80933401AB
S11304A080913401883110F010923401209136018A
S11304B08091390190E034E6239F800D911D112431
S11304C017DE80913A0190913B016AEF70E094D07D
S11304D0892B61F490913D0181E0892780933D014E
S11304E0E5E6F0E0908180E189278083FF91EF9138
S11304F0BF91AF919F918F917F916F915F914F9138
S11305003F912F910F900BBE0F900FBE0F901F9035
S113051018958EE083BF8CE781BF87B7826087BF61
S113052016BE10927C000895CF93DF93EC018FB533
S11305308FBD8EB58C608EBDEAE7F0E0808180834C
S11305408EB58770833089F028F4813041F0823091
S113055049F013C0843061F0853069F00EC021E0A9
S113056030E00BC028E030E008C020E430E005C0F3
S113057020E031E002C020E034E0032E000C440B04
S1130580550B60E074E284EF90E049D0DE0172D054
S113059028EE33E040E050E042D0DA01C90101978F
S11305A0A109B109892F9A2FAB2FBB27A7FDBA95B3
S11305B08BBD21502ABD1DBC1CBC87B7806187BF81
S11305C016BE10927C00DF91CF910895139AEBE848
S11305D0F0E0808182688083EAE8F0E080818A61CB
S11305E0808310928700109286008FE19EE490939E
S11305F0810080938000089597FB072E16F40094E1
S113060006D077FD08D03CD007FC05D03EF4909589
S113061081959F4F0895709561957F4F0895052E9C
S113062097FB16F400940FD057FD05D03DD007FC7E
S113063002D046F408C050954095309521953F4F1F
S11306404F4F5F4F089590958095709561957F4FBA
S11306508F4F9F4F0895A29FB001B39FC001A39FE6
S1130660700D811D1124911DB29F700D811D1124E7
S1130670911D0895B7FF3AC039D0821B930B08959A
S1130680AA1BBB1B51E107C0AA1FBB1FA617B707B4
S113069010F0A61BB70B881F991F5A95A9F78095D0
S11306A09095BC01CD010895A1E21A2EAA1BBB1B93
S11306B0FD010DC0AA1FBB1FEE1FFF1FA217B3072A
S11306C0E407F50720F0A21BB30BE40BF50B661F40
S11306D0771F881F991F1A9469F760957095809504
S11306E090959B01AC01BD01CF010895B4DFA59F96
S11306F0900DB49F900DA49F800D911D1124089519
S1070700F894FFCF97
S1130704C0F9A4B0999282F88090204144432026F1
S11307142050574D204578616D2000202020202052
S10F072420202020202020202020200065
S9030000FC
