S017000032303138303332375F52436578616D2E73726563D7
S113000045C0000060C000005EC000005CC000008D
S11300105AC0000058C0000056C0000054C0000080
S113002052C0000050C000004EC000004CC0000090
S11300306DC1000048C0000046C000002DC1000092
S113004042C0000040C000003EC000003CC00000B0
S11300503AC0000038C0000036C0000034C00000C0
S113006032C0000030C000002EC000002CC00000D0
S11300702AC0000028C00000C4C1000024C0000041
S113008022C0000020C000001EC0000011241FBEBA
S1130090CFEFD0E1DEBFCDBF11E0A0E0B1E0ECE9ED
S11300A0F5E000E00BBF02C007900D92AA30B10743
S11300B0D9F721E0AAE0B1E001C01D92AD31B20749
S11300C0E1F7C8D069C29CCFCF93DF93AC01CBE0FA
S11300D0D1E09C0136952795369527953695279539
S11300E0A5ECB0E214D2FC01F295E295EF70EF2793
S11300F0FF70EF279F01ADECBCEC09D29695879574
S113010096958795969587959C01220F331F880FA6
S1130110991F880F991F880F991F820F931FE81B3F
S1130120F90BE050FF4F808188839A01369527951B
S113013036952795ABE7B4E1EAD1FC01F695E7954E
S11301409F01ADECBCECE3D1969587959695879588
S1130150969587959C01220F331F880F991F880F4E
S1130160991F880F991F820F931FE81BF90BE0500A
S1130170FF4F808189839A01CAD1FC01F695E795E6
S1130180F695E795F695E7959F01C1D196958795E4
S113019096958795969587959C01220F331F880F16
S11301A0991F880F991F880F991F820F931FDF01D2
S11301B0A81BB90BA050BF4F8C918A83CF01880F25
S11301C0991FEE0FFF1FEE0FFF1FEE0FFF1FE80F2B
S11301D0F91F4E1B5F0BFA01E050FF4F80818B83A8
S11301E0DF91CF91089593B19F7393B91D9A95E0D0
S11301F09A95F1F7000088BB1F9A85E08A95F1F77C
S113020000001F9895ED9A95F1F7000008958FEF7F
S113021084BB15BA089585B38D6085BB089585B3F5
S1130220876085BB0895A89A089585B38C6085BBC3
S1130230089585B38C7F85BB0895F7DFFACF0895C1
S113024085B3837F85BB0895EEDFFACF0895F1DF90
S1130250F7CF089580E895E202D1D9DF78948091B0
S11302600F018823E1F380910F018C3479F028F495
S1130270823451F0863431F0F2CF823549F083353F
S113028049F0EDCFC8DFEBCFCADFE9CFD6DFE7CF48
S1130290DBDFE5CFDCDFE3CF1F920F920FB60F92C7
S11302A011240BB60F922F938F939F93EF93FF9389
S11302B0E5E6F0E08081807F8083208181E090E02A
S11302C000900A0102C0880F991F0A94E2F7822B5A
S11302D08083E0910A01F0E0E55FFE4F80818BBBF3
S11302E080910A018F5F843019F080930A0102C063
S11302F010920A01FF91EF919F918F912F910F908E
S11303000BBE0F900FBE0F901F9018951F920F9267
S11303100FB60F9211240BB60F922F933F934F9366
S11303205F936F937F938F939F93AF93BF93EF9359
S1130330FF938091190190911A01019690931A01EB
S1130340809319018091190190911A01843F914081
S113035084F110921A0110921901809118018F5F93
S113036080931801809118018C33C0F01092180109
S1130370809115018F5F80931501809115018C3355
S113038068F010921501809113018F5F809313011F
S113039080911301883110F01092130120911501FE
S11303A08091180190E034E6239F800D911D112463
S11303B08BDE8091190190911A016AEF70E078D078
S11303C0892B61F490911C0181E0892780931C01A1
S11303D0E5E6F0E0908180E189278083FF91EF9149
S11303E0BF91AF919F918F917F916F915F914F9149
S11303F03F912F910F900BBE0F900FBE0F901F9047
S113040018951F920F920FB60F9211240BB60F92EC
S11304102F933F934F935F936F937F938F939F9308
S1130420AF93BF93EF93FF9380919C0080930F0150
S113043080910F0190E0D7DEFF91EF91BF91AF91D2
S11304409F918F917F916F915F914F913F912F91E8
S11304500F900BBE0F900FBE0F901F9018959C012C
S113046040E050E060E472E48FE090E034D0DA01E0
S1130470C9010197A109B109892F9A2FAB2FBB2775
S1130480A7FDBA958093980021502093990010926B
S11304909B0088E980939A0086E080939D00809178
S11304A09C008FE99FE00197F1F700C000000895D8
S11304B097FB072E16F4009406D077FD08D036D0AB
S11304C007FC05D03EF4909581959F4F0895709553
S11304D061957F4F0895052E97FB16F400940FD075
S11304E057FD05D037D007FC02D046F408C050951C
S11304F04095309521953F4F4F4F5F4F089590950C
S11305008095709561957F4F8F4F9F4F0895A29F5F
S1130510B001B39FC001A39F700D811D1124911DD3
S1130520B29F700D811D1124911D0895AA1BBB1B40
S113053051E107C0AA1FBB1FA617B70710F0A61BDF
S1130540B70B881F991F5A95A9F780959095BC0100
S1130550CD010895A1E21A2EAA1BBB1BFD010DC0FB
S1130560AA1FBB1FEE1FFF1FA217B307E407F5075F
S113057020F0A21BB30BE40BF50B661F771F881F3B
S1130580991F1A9469F760957095809590959B01D1
S10F0590AC01BD01CF010895F894FFCF29
S10D059CC0F9A4B0999282F880908F
S9030000FC
